:020000020000FC
:100C000000000000000000000000000000000000E4
:100C100000000000000000000000000000000000D4
:100C200000000000000000000000000000000000C4
:100C300000000000000000000000000000000000B4
:10110000000000000C0C0C0CF0F0F0F0FCFCFCFCFF
:10111000000000000C0C0C0CF0F0F0F0FCFCFCFCEF
:10112000000000000C0C0C0CF0F0F0F0FCFCFCFCDF
:10113000000000000C0C0C0CF0F0F0F0FCFCFCFCCF
:10114000000000000C0C0C0CF0F0F0F0FCFCFCFCBF
:10115000000000000C0C0C0CF0F0F0F0FCFCFCFCAF
:10116000000000000C0C0C0CF0F0F0F0FCFCFCFC9F
:10117000000000000C0C0C0CF0F0F0F0FCFCFCFC8F
:10118000000000000C0C0C0CF0F0F0F0FCFCFCFC7F
:10119000000000000C0C0C0CF0F0F0F0FCFCFCFC6F
:1011A000000000000C0C0C0CF0F0F0F0FCFCFCFC5F
:1011B000000000000C0C0C0CF0F0F0F0FCFCFCFC4F
:1011C000000000000C0C0C0CF0F0F0F0FCFCFCFC3F
:1011D000000000000C0C0C0CF0F0F0F0FCFCFCFC2F
:1011E000000000000C0C0C0CF0F0F0F0FCFCFCFC1F
:1011F000000000000C0C0C0CF0F0F0F0FCFCFCFC0F
:10120000000000000C0C0C0CF0F0F0F0FCFCFCFCFE
:10121000000000000C0C0C0CF0F0F0F0FCFCFCFCEE
:10122000000000000C0C0C0CF0F0F0F0FCFCFCFCDE
:10123000000000000C0C0C0CF0F0F0F0FCFCFCFCCE
:10124000000000000C0C0C0CF0F0F0F0FCFCFCFCBE
:10125000000000000C0C0C0CF0F0F0F0FCFCFCFCAE
:10126000000000000C0C0C0CF0F0F0F0FCFCFCFC9E
:10127000000000000C0C0C0CF0F0F0F0FCFCFCFC8E
:10128000000000000C0C0C0CF0F0F0F0FCFCFCFC7E
:10129000000000000C0C0C0CF0F0F0F0FCFCFCFC6E
:1012A000000000000C0C0C0CF0F0F0F0FCFCFCFC5E
:1012B000000000000C0C0C0CF0F0F0F0FCFCFCFC4E
:1012C000000000000C0C0C0CF0F0F0F0FCFCFCFC3E
:1012D000000000000C0C0C0CF0F0F0F0FCFCFCFC2E
:1012E000000000000C0C0C0CF0F0F0F0FCFCFCFC1E
:1012F000000000000C0C0C0CF0F0F0F0FCFCFCFC0E
:10130000000CF0FC000CF0FC000CF0FC000CF0FCFD
:10131000000CF0FC000CF0FC000CF0FC000CF0FCED
:10132000000CF0FC000CF0FC000CF0FC000CF0FCDD
:10133000000CF0FC000CF0FC000CF0FC000CF0FCCD
:10160000C4FCFCFCFCFCDCD4D4FCD4FCD4D474DCE2
:10161000D4D40CF0FC5400FCFC74747C3C1C0C0412
:101620000020D80020C8403010400000000000100A
:101630007020707010F870F870700000000000707A
:101640007070F070F0F8F870887008888088887082
:10165000F070F070F88888888888F87040702000F2
:10166000300000000000000000000000000000004A
:1016700000000000000000000000003020600000BA
:101680003800000000002028280028002828882092
:101690002828F00C00A8FC0000888880C0E0F0F842
:1016A000FCDC24FCDC34BCCCECBCFCFCFCFCFCEC2A
:1016B0008CDC8C8CEC048C048C8CFCFCFCFCFC8C9A
:1016C0008C8C0C8C0C04048C748CF4747C74748C72
:1016D0000C8C0C8C047474747474048CBC8CDCFCE2
:1016E000CCFCFCFCFCFCFCFCFCFCFCFCFCFCFCFC6A
:1016F000FCFCFCFCFCFCFCFCFCFCFCCCDC9CFCFCDA
:10170000BCFC8484FCFCACD4D4FCD4FCD4D4FCACB1
:10171000D4D40CF0FC54FCFCFCFCFC7C3C1C0C0405
:101720000070D85070C8A030202088000000001041
:101730008860888830808008888800001000408891
:1017400088888888888080808820088880D8C88891
:1017500088888888208888888888084040105000B9
:101760003000000000000000000000000000000049
:101770000000000020000000000000402010500089
:1017800040007878000050282800280028280050C1
:101790002828F00C00A8000000000080C0E0F0F84D
:1017A000FC8C24AC8C345CCCDCDC74FCFCFCFCECF1
:1017B000749C7474CC7C7CF47474FCFCECFCBC7481
:1017C00074747474747C7C7C74DCF4747C24347461
:1017D00074747474DC7474747474F4BCBCECACFC19
:1017E000CCFCFCFCFCFCFCFCFCFCFCFCFCFCFCFC69
:1017F000FCFCFCFCDCFCFCFCFCFCFCBCDCECACFC09
:10180000BC74B484ACFCDCD4D4FCD4FCD4D48CDC68
:10181000D4D40CF0AC5400FC8C8C747C3C1C0C04B8
:10182000007090F8A810A020401050200000001078
:1018300088200808508080088888000020002088C0
:1018400088888880888080808820089080A8C888C0
:101850008888888020888888888808404010880088
:101860001000800008001800802008802000000080
:101870000000000020000000000000402010A02018
:101880004088487850002028280028002828702008
:101890002828F00C50A8FC0070708880C0E0F0F898
:1018A000FC8C6C0454EC5CDCBCECACDCFCFCFCECB8
:1018B00074DCF4F4AC7C7CF47474FCFCDCFCDC7450
:1018C0007474747C747C7C7C74DCF46C7C54347430
:1018D0007474747CDC7474747474F4BCBCEC74FC48
:1018E000ECFC7CFCF4FCE4FC7CDCF47CDCFCFCFC30
:1018F000FCFCFCFCDCFCFCFCFCFCFCBCDCEC5CDC78
:101900000CFCB484FC00FC14D0C0D40014D4748C3F
:10191000D0100CF0FC54FC040474747C3C1C0C04CB
:1019200000700050A020A000401070200000002097
:1019300098200808908080088888303040F8100887
:101940008888888088808080882008A08088A888EF
:10195000888888802088888850881040201000005F
:1019600000008000080020008000008020000000AF
:101970000000000020000000000000402010006077
:10198000F000487800FC00E82C3C28FCE82888702F
:101990002CECF00C00A800F8F8888880C0E0F0F883
:1019A000FC8CFCAC5CDC5CFCBCEC8CDCFCFCFCDC97
:1019B00064DCF4F46C7C7CF47474CCCCBC04ECF487
:1019C0007474747C747C7C7C74DCF45C7C745474FF
:1019D0007474747CDC747474AC74ECBCDCECFCFC6F
:1019E000FCFC7CFCF4FCDCFC7CFCFC7CDCFCFCFCFF
:1019F000FCFCFCFCDCFCFCFCFCFCFCBCDCECFC9C17
:101A0000BC74B4848CFC8CF4DCDCD4FCF4107474F2
:101A1000DCFC0CF08C5400F40474747C3C1C0C044E
:101A200000200050702040004010F8F800F800201E
:101A3000A820303090F0F01070783030800008101E
:101A4000B8F8F08088E0E0B8F82008C08088A8885E
:101A5000F088F070208888882050204020100000F6
:101A60000070F07878702070F020088820F0F07016
:101A7000F078F078708888888888F880000800F806
:101A800040884878700070082020280008EC88887A
:101A90002000F00C70A8FC08F8888880C0E0F0F8FE
:101AA000FCDCFCAC8CDCBCFCBCEC0404FC04FCDC0E
:101AB00054DCCCCC6C0C0CEC8C84CCCC7CFCF4ECEE
:101AC00044040C7C741C1C4404DCF43C7C7454748E
:101AD0000C740C8CDC747474DCACDCBCDCECFCFCD6
:101AE000FC8C0C84848CDC8C0CDCF474DC0C0C8C96
:101AF0000C840C848C7474747474047CFCF4FC0486
:101B00000C74B484F400F404C0D0D41014FC0404A5
:101B1000D010F00C7454FC140474747C3C1C0C0441
:101B2000002000502820A00040107020000000205D
:101B3000C8204008F80888208808000040F81020D5
:101B4000A888888088808088882088A08088988855
:101B50008088A008208888A85020404020100000DD
:101B600000088880888870888820089020A8888845
:101B700088888880208888885088104020100060DD
:101B8000F088487808FC08F83C2C28ECE800F8F8C5
:101B90002CEC0CF088A800E8F8888880C0E0F0F809
:101BA000FCDCFCACD4DC5CFCBCEC8CDCFCFCFCDCCD
:101BB00034DCBCF404F474DC74F4FCFCBC04ECDC35
:101BC0005474747C747C7C7474DC745C7C74647495
:101BD0007C745CF4DC747454ACDCBCBCDCECFCFCED
:101BE000FCF4747C74748C7474DCF46CDC54747465
:101BF0007474747CDC747474AC74ECBCDCECFC9CAD
:101C0000BC74B48484FC84FCFCD4D4D4D400747438
:101C1000D4D4F00C745400D48C74747C3C1C0C042C
:101C2000002000F8A840A80040105020000000400C
:101C30008820800810088820880830302000202064
:101C4000B888888088808088882088908088988854
:101C500080A89008208888A8882080401010000064
:101C60000078888088F82088882088E020A88888E4
:101C700088888070208888A8208820402010002034
:101C800040884878780078000028282828FC888830
:101C900028280CF088A8FC2870888880C0E0F0F81C
:101CA000FCDCFC0454BC54FCBCECACDCFCFCFCBC1C
:101CB00074DC7CF4ECF474DC74F4CCCCDCFCDCDCA4
:101CC0004474747C747C7C7474DC746C7C74647494
:101CD0007C546CF4DC74745474DC7CBCECECFCFC64
:101CE000FC84747C7404DC7474DC741CDC547474C4
:101CF00074747C8CDC747454DC74DCBCDCECFCDC54
:101D0000BC74B48474FC74FCFCD4D4D4D4FC74745B
:101D1000D4D4F00C7454FCD4FC74747C3C1C0C04BF
:101D20000000005070989000202088003000304063
:101D300088208088108888208888303010004000F3
:101D4000808888888880808888208888808888889B
:101D500080908888208850D888208040101000000B
:101D600000888880888020788820889020888888CB
:101D7000F0788008208850A850784040201000005B
:101D8000408848788800880000282828280088880B
:101D900028280CF088A8002800888880C0E0F0F887
:101DA000FCFCFCAC8C646CFCDCDC74FCCCFCCCBCC3
:101DB00074DC7C74EC7474DC7474CCCCECFCBCFC13
:101DC0007C747474747C7C7474DC74747C7474744B
:101DD0007C6C7474DC74AC2474DC7CBCECECFCFCBB
:101DE000FC74747C747CDC8474DC746CDC747474DB
:101DF0000C847CF4DC74AC54AC84BCBCDCECFCFC2B
:101E0000C484848484FC84FCFCD4D4D4D4FC747452
:101E1000D4D4F00C8CFC00D4FC8C8C7C3C1C0C04CA
:101E20000020000020986800104000003000304082
:101E30007070F8701070702070700020000000202A
:101E40007888F070F0F8807088707088F8888870F2
:101E500080688870207020888820F870107000FCDE
:101E60000078F078787820088870708830888870DA
:101E7000800880F0207820708808F830206000000A
:101E80003878787878007800002828282800888812
:101E900028280CF07000FC2800707080C0E0F0F87A
:101EA000FCDCFCFCDC6494FCECBCFCFCCCFCCCBCA2
:101EB0008C8C048CEC8C8CDC8C8CFCDCFCFCFCDCDA
:101EC00084740C8C0C047C8C748C8C740474748CF2
:101ED0007C94748CDC8CDC7474DC048CEC8CFC00E6
:101EE000FC840C848484DCF4748C8C74CC74748CCA
:101EF0007CF47C0CDC84DC8C74F404CCDC9CFCFC7A
:101F0000FCFCFCFCFCFCFCFCFCD4D4D4D4FCFCFCB1
:101F1000D4D4F00CFCFCFCD4FCFCFC7C3C1C0C047D
:101F20000000000000000000000000002000000091
:101F300000000000000000000000000000000000A1
:101F40000000000000000000000000000000000091
:101F50000000000000000000000000000000000081
:101F60000000000000000070000000000000000001
:101F70008008000000000000007000000000000069
:101F800000000000000000000028282828000000B1
:101F900028280CF00000002800000080C0E0F0F8C5
:101FA000FCFCFCFCFCFCFCFCFCFCFCFCDCFCFCFC91
:101FB000FCFCFCFCFCFCFCFCFCFCFCFCFCFCFCFC61
:101FC000FCFCFCFCFCFCFCFCFCFCFCFCFCFCFCFC51
:101FD000FCFCFCFCFCFCFCFCFCFCFCFCFCFCFCFC41
:101FE000FCFCFCFCFCFCFC8CFCFCFCFCFCFCFCFCA1
:101FF0007CF4FCFCFCFCFCFCFC8CFCFCFCFCFCFC19
:1000000001C028C00024552466247727DD24EE246F
:1000100003E0302E26E11124139401BA726007E048
:10002000902E00E0A02E71607724A0E6B0E0BA9890
:10003000C29AB99AB898C09A6C9A00E1FF27EE2745
:100040003197F1F70A95D1F700E40BBF02E205BF43
:1000500078948895F8940BBE0BEED02EE12C0BEB28
:100060000A95F1F7000000000000000003E000BF67
:1000700000E40CBD02E80EBD0BE80BBD0EE90DBDA2
:1000800002E00ABD01E003BF0EE909BD0FBC08EFA5
:1000900002BF0FB50738E8F3501449F4B0991EC0F9
:1000A00000E8802E08E1502E04E6602E5BC15794D4
:1000B00008F014C003E0501611F4552453C1511434
:1000C00019F40CE76026562CB0990894879408F030
:1000D00049C107E0502E682D746044C172FD1AC0FA
:1000E00074FDD5C001B3001203C073FD0DC13AC148
:1000F00075FD05C0706122247062FF2433C100E1E8
:10010000F01619F0706122242DC101B30A9501BBCC
:100110007F7D28C17B7F501148C06B31B9F06D30B5
:10012000C9F06A30B9F0683009F017C038174907CC
:1001300061F08015900511F4882792E0019760E244
:10014000C0E6D0E0C80FD91F68830CC151E0BB24C2
:10015000CC2408C1807E80961CC0092D01FF04C0FC
:100160000A2D01FD60EA07C00A2D01FF03C000E867
:10017000602701C060E2C0E6D0E0C80FD91F6993D4
:1001800071FF02C0019605C0082F0F710F3109F0F1
:100190000196923011F4882799273817490709F0FA
:1001A000E1C0786002E0202EDDC0511105C00BE5F2
:1001B000601361C052E0D6C06B3321F4CB2CBB245A
:1001C00053E0D0C0613440F40B2DBB0CBB0CB00E1F
:1001D000BB0C6053B60EC6C06B3581F06D3599F11E
:1001E0006D3699F1683471F0663661F06A3401F168
:1001F0006836A1F06C36B9F05527B4C0706122247E
:10020000FB2C43C099278C2D8295880F991F8B0D4D
:10021000830F941F923008F0925037C00DE9B0124E
:1002200034C0726032C00DE9B0122FC07D7F2DC086
:1002300002E0B01611F0552795C071607724A0E652
:10024000B0E055278FC0B2BA20C0B01479F008E2F0
:10025000B01618F0B01AAB2C03C00EE1B01A9B2CEC
:1002600003E0501312C0BC2C5A95F1CF07E0902E3A
:1002700000E0A02EF5CF552704E460136ECF01B344
:1002800010E20113039501BB6DC055276BC0C0E69A
:10029000D0E0C30FD41F11270F2D0295000F111F9F
:1002A000C00FD11F02E0C036D00708F0D250022D97
:1002B00002950695C00F239404E0021589F0098188
:1002C0000993098109930981099309810993098196
:1002D000099309810993098109930981099342C00E
:1002E0000981099309810993098109930981099376
:1002F00009810993098109930981099300E208831F
:1003000075FDF3947F7E2EC0C0E6D0E0C30FD41FEE
:1003100000E22A9491F0088309830A830B830C83FB
:100320000D830E830F83088709870A870B870C8745
:100330000D870E870F87088B15C0098B0A8B0B8BD7
:100340000C8B0D8B0E8B0F8B088F098F0A8F0B8FE9
:100350000C8F0D8F0E8F0F8F300F401D777F423027
:1003600009F444270FB50230E9F702B7EBEBF1E0EF
:10037000E00FF01D09940000000000000000D10C07
:10038000E01C00EED016E10408F032C170FF12C08C
:1003900000E410E21D930A95E9F7739473FE79CE99
:1003A0007E7FA0E6B0E003E0302E44273327992774
:1003B00088276FCEF22FED9104910FB9699A699A4F
:1003C000699A699A699AED9104910FB9699A699A43
:1003D000699A699A699AED9104910FB9699A699A33
:1003E000699A699A699AED9104910FB9699A699A23
:1003F000699A699A699AED9104910FB9699A699A13
:10040000699A699A699AED9104910FB9699A699A02
:10041000699A699A699AED9104910FB9699A699AF2
:10042000699A699A699AED9104910FB9699A699AE2
:10043000699A699A699AED9104910FB9699A699AD2
:10044000699A699A699AED9104910FB9699A699AC2
:10045000699A699A699AED9104910FB9699A699AB2
:10046000699A699A699AED9104910FB9699A699AA2
:10047000699A699A699AED9104910FB9699A699A92
:10048000699A699A699AED9104910FB9699A699A82
:10049000699A699A699AED9104910FB9699A699A72
:1004A000699A699A699AED9104910FB9699A699A62
:1004B000699A699A699AED9104910FB9699A699A52
:1004C000699A699A699AED9104910FB9699A699A42
:1004D000699A699A699AED9104910FB9699A699A32
:1004E000699A699A699AED9104910FB9699A699A22
:1004F000699A699A699AED9104910FB9699A699A12
:10050000699A699A699AED9104910FB9699A699A01
:10051000699A699A699AED9104910FB9699A699AF1
:10052000699A699A699AED9104910FB9699A699AE1
:10053000699A699A699AED9104910FB9699A699AD1
:10054000699A699A699AED9104910FB9699A699AC1
:10055000699A699A699AED9104910FB9699A699AB1
:10056000699A699A699AED9104910FB9699A699AA1
:10057000699A699A699AED9104910FB9699A699A91
:10058000699A699A699AED9104910FB9699A699A81
:10059000699A699A699AED9104910FB9699A699A71
:1005A000699A699A699AED9104910FB9699A699A61
:1005B000699A699A699A00000FB890973A9409F07D
:1005C00068CD03E0302E2395203219F0263109F052
:1005D00060CD4394909602E0A036B00711F4A0E6F7
:1005E000B0E002B3401610F026E153CD2CE051CD1F
:1005F00012E00DE0D016E10619F070FDC9CE49CD2C
:10060000DD24EE2403E0302E4424A0E6B0E0A30F66
:10061000B41F02B3001511F02CE03BCD26E139CD1B
:00000001FF
